:1000000060C000007CC000007AC0000078C0000022
:1000100076C0000074C0000072C0000070C0000014
:100020006EC000006CC000006AC0000068C0000024
:1000300066C0000089C0000062C0000060C000000F
:100040005EC000005CC000005AC0000058C0000044
:1000500056C0000054C0000052C0000050C0000054
:100060004EC000004CC000004AC0000048C0000064
:1000700046C0000044C0000042C0000040C0000074
:100080003EC000003CC000003AC00000EB04EF049A
:10009000F7040C05100518051C05250529052D0577
:1000A00035057A057E0584058A0592059A05A7051A
:1000B000AB05B305B705BF05C305C905D205D60510
:1000C000DF0511241FBECFEFD0E4DEBFCDBF14E0AB
:1000D000A0E0B1E0E8E0F6E100E00BBF02C007906D
:1000E0000D92AC3CB107D9F725E0ACECB4E001C00F
:1000F0001D92AB36B207E1F7D7D50C94020B80CF37
:100100008BE0809381008DE790E09093890080934D
:10011000880082E080936F00109285001092840026
:1001200080914C0490914D04A0914E04B0914F04E5
:1001300080935F0590936005A0936105B09362057D
:100140008FB780688FBF08951F920F920FB60F92DE
:1001500011248F939F93AF93BF9380915F059091EC
:100160006005A0916105B09162050197A109B109EF
:1001700080935F0590936005A0936105B09362053D
:10018000892B8A2B8B2B99F481E0809363058091D6
:100190004C0490914D04A0914E04B0914F04809373
:1001A0005F0590936005A0936105B0936205BF91D0
:1001B000AF919F918F910F900FBE0F901F90189548
:1001C000181619069CF440E050E077E063E00BC09D
:1001D00000002150310921153105D1F74F5F5F4FE4
:1001E0004817590719F0272F362FF2CF089528986E
:1001F0008BB9299A0000299882E090E0E1CF089518
:1002000081E0F5CF0895813118F48158F0CF089539
:100210008155EDCF089584E690E0D2DF88E3E7DFF3
:1002200086E0E5DF8FE0E3DF81E0E1DF8AE090E078
:10023000C7CF0895289A8BB9299A0000299881E0A0
:1002400090E0BECF08950F931F93CF93DF93182FA5
:10025000EB01D6DF8881882359F001E0010F812F5F
:10026000D2DF8991E7DF8881882311F0102FF5CF45
:10027000DF91CF911F910F910895CF92DF92EF926E
:10028000FF926B017C012091CC043091CD04409110
:10029000CE045091CF0455D5882309F452C020E0F4
:1002A00030E0A901C701B6014CD5811106C0E1E9D2
:1002B000F0E080818870808305C0E1E9F0E0808112
:1002C0008360808328E539E344E75FE3C701B60133
:1002D00038D588233CF48FEF9FEF9093990080935B
:1002E000980023C020E034E244EF56E4C701B60191
:1002F0003AD618162CF4109299001092980015C056
:1003000020E030E040E053E4C701B60130D69B0165
:10031000AC0160E074E284EF9AE417D57ED56150B9
:100320007109709399006093980010929500109253
:100330009400C092CC04D092CD04E092CE04F0920E
:10034000CF04FF90EF90DF90CF90089580E48093EA
:1003500090008BE08093910060E070E0CB018DCF46
:10036000089582B1837082B988B1836088B9089595
:1003700082B1837082B988B1806C88B9089582B1E6
:10038000837082B988B1806388B908958FEF82B98C
:1003900018B80895CF92DF92EF92FF92F7DF809125
:1003A0005805E091D004F091D10491E4899FE00DCB
:1003B000F11D1124EE0FFF1FEE0FFF1FE050FF4F46
:1003C000C080D180E280F3802DE73FEF43EC52E420
:1003D000C701B601B6D4882309F485C026EF38EAF0
:1003E0004FEC52E4C701B601ACD4882309F47BC0BA
:1003F00020E030E04CED52E4C701B601A2D48823DE
:1004000009F471C02BE734E149EE52E4C701B601AB
:1004100098D4882309F467C024EA30EF46EF52E409
:10042000C701B6018ED4882309F45DC020E030E016
:1004300044E453E4C701B60184D4882309F453C0CB
:1004400026E636EA4FE453E4C701B6017AD488239E
:1004500009F449C020E030E04CE553E4C701B6019F
:1004600070D4882309F43FC02BE734E149E653E414
:10047000C701B60166D48823B1F124EA30EF46E71C
:1004800053E4C701B6015DD4882369F120E030E070
:1004900044EC53E4C701B60154D4882321F126E685
:1004A00036EA4FEC53E4C701B6014BD48823D9F0A8
:1004B00020E030E04CED53E4C701B60142D488237C
:1004C00091F02BE734E149EE53E4C701B60139D48A
:1004D000882349F024EA30EF46EF53E4C701B60120
:1004E00030D481110CC03DDF80915505E82FF0E03C
:1004F000ED5EFA4F92E590838F5F80935505809172
:100500005805E091D004F091D10491E4899FE00D69
:10051000F11D1124EE0FFF1FEE0FFF1FE050FF4FE4
:10052000C080D180E280F3802FED3FEC42E852E4BE
:10053000C701B60106D4882309F471C02DE837E954
:100540004AE852E4C701B601FCD3882309F467C026
:100550002EEF34ED42E952E4C701B601F2D388230D
:1005600009F45DC022E630E94BE952E4C701B60167
:10057000E8D3882309F453C02CE53FEC42E053E470
:10058000C701B601DED3882309F449C02AE037E960
:100590004AE053E4C701B601D4D3882309F43FC02D
:1005A0002BE734ED42E153E4C701B601CAD38823F7
:1005B000B1F12CE53FE84BE153E4C701B601C1D3EB
:1005C000882369F124EA30ED42E853E4C701B6011B
:1005D000B8D3882321F12AE037E94AE853E4C70178
:1005E000B601AFD38823D9F02BE734ED43E853E4C9
:1005F000C701B601A6D3882391F024EA30E94BE97C
:1006000053E4C701B6019DD3882349F020E030EDC3
:1006100042E054E4C701B60194D381110CC0A8DEB6
:1006200080915505E82FF0E0ED5EFA4F92E490835B
:100630008F5F8093550580915805E091D004F0912B
:10064000D10491E4899FE00DF11D1124EE0FFF1FED
:10065000EE0FFF1FE050FF4FC080D180E280F3809B
:1006600022E630ED44EA52E4C701B6016AD388239A
:1006700009F449C02FE23DE94EEA52E4C701B60150
:1006800060D3882309F43FC02DE73FEF48EB52E4E5
:10069000C701B60156D38823B1F12CE53FEC44E203
:1006A00053E4C701B6014DD3882369F129E23CE93F
:1006B0004EE253E4C701B60144D3882321F120E080
:1006C00030E049E353E4C701B6013BD38823D9F0B6
:1006D00024EA30ED44EA53E4C701B60132D388235B
:1006E00091F021E73DE94EEA53E4C701B60129D371
:1006F000882349F028EB3EEF48EB53E4C701B601ED
:1007000020D381110CC03BDE80915505E82FF0E02D
:10071000ED5EFA4F97E490838F5F80935505FF90CD
:10072000EF90DF90CF9008950F931F93CF93DF93B7
:1007300000D0CDB7DEB7162F633600F5BC018CE0D4
:1007400094E089D41F921F9380E594E09F938F9348
:100750001F9282E08F938E010F5F1F4F1F930F93A5
:1007600081D4B8018CE094E06BD481E0809356058D
:100770000FB6F894DEBF0FBECDBF1AC0611111C015
:10078000BC018CE094E067D480E290E3A0E0809329
:100790000C0490930D04A0930E0481E08093560501
:1007A00007C0BC018CE094E056D481E080935605EC
:1007B0000F900F90DF91CF911F910F91089563E6F5
:1007C00070E083E195E0B0CF089563E670E082EDDC
:1007D00094E0AACF08952091550530E01216130633
:1007E0009CF460915705A2EDB4E0E3E1F5E080E010
:1007F00090E05D914191541301C06F5F01968217A3
:100800009307BCF3609357056091570570E083E54B
:1008100094E08ACF089580916805882319F081308B
:1008200041F004C081E08093680503C01092680520
:10083000089560915B0570915C0580915D059091D4
:100840005E051BCD0895809164058230E1F028F4A7
:10085000882341F0813051F043C0833081F08430EF
:10086000D9F13EC081E080936405089580915A05D6
:10087000882309F45CC083E080936405089582E0D6
:100880008093640530C080915805E091D004F091C8
:10089000D10491E4899FE00DF11D1124EE0FFF1F9B
:1008A000EE0FFF1FE050FF4F20E030E040E85FE335
:1008B000608171818281938144D2811114C084E06E
:1008C000809364051092D1041092D00481E080934B
:1008D000590510925A05089581E0809364050895A2
:1008E0001092640508952091D0043091D104809134
:1008F0005805F90191E4899FE00DF11D1124EE0FD7
:10090000FF1FEE0FFF1FE050FF4F80819181A281FA
:10091000B38180935B0590935C05A0935D05B093D4
:100920005E052F5F3F4F3093D1042093D00408958C
:1009300080916905813051F028F0823091F0833048
:10094000A1F01AC081E080936905089580915A054D
:10095000882321F082E0809369050895109269054B
:10096000089583E0809369050AC080915905882322
:1009700031F01092690508951092690508950ACD25
:10098000089580916705882319F0813049F00BC0E4
:1009900080915605882399F081E08093670509C00E
:1009A000109267050895109269058091670581305E
:1009B00031F46CE074E081E046DC10925605089555
:1009C00080916A0590E08B31910508F001C1FC012E
:1009D000EA5BFF4F2FC381E080936A053AC11A9901
:1009E00038C11A9936C18FE080936A0508951B9922
:1009F0000DC083E080936A0563E68AE594E094DEA7
:100A000080915805823008F0F7C0F2C01A9932C1BF
:100A100080E180936A05089584E080936A050895D3
:100A20001B9B41C11B9B3FC182E080936A0522C191
:100A300086E080936A0525C180915905882309F4D1
:100A400020C187E080936A0508958AE080936A0553
:100A5000D6C089E080936A0519C11B9B04C08AE057
:100A600080936A05CCC083B111C11B9913C088E083
:100A700080936A0563E688E694E056DE809154052B
:100A8000E82FF0E0EE52FB4F92E590838F5F80936A
:100A9000540508951D9913C083E180936A0563E6A8
:100AA00085E794E041DE80915405E82FF0E0EE52B6
:100AB000FB4F97E490838F5F8093540508951F99AF
:100AC00013C081E180936A0563E684E894E02CDE3C
:100AD00080915405E82FF0E0EE52FB4F92E49083B2
:100AE0008F5F8093540508951A9989C087E1809398
:100AF0006A0508958CE080936A0508951A99D3C019
:100B000089E180936A0508951A99CDC08EE080939B
:100B10006A0508951A9B04C081E080936A0599C014
:100B200083B108951A9B04C082E080936A05A2C035
:100B300083B108951A9B09C085E080936A0581E01E
:100B400080935A0510925905089583B1089582E162
:100B500080936A0562C01F9B04C08AE080936A0587
:100B60004EC083B15AC084E180936A0564C01D9B66
:100B700004C08AE080936A0542C083B15CC086E10C
:100B800080936A0508951A998EC08AE180936A0558
:100B900008951A9B05C08BE080936A0510CE0895D6
:100BA00083B108958DE080936A0508951A9B05C06E
:100BB00085E180936A0509CE089583B108951A9B53
:100BC00072C01A9B70C088E180936A0504CE0895B4
:100BD00010926A0508951192E817F907E1F7E2ED1E
:100BE000F4E083E195E01192E817F907E1F7089541
:100BF0008F5F80935805089510925805089563E615
:100C000082E994E091DDC2DB10925B0510925C05F5
:100C100010925D0510925E050895AADB8BE794EDB6
:100C2000A2E1B3E480935B0590935C05A0935D051E
:100C3000B0935E050895A3DB80E090E0A9E3B3E400
:100C400080935B0590935C05A0935D05B0935E0572
:100C5000089563E68FE994E067DD109257051092DE
:100C600058051092550510925405E3E1F5E084E52E
:100C700095E0B1CF609158056F5F80EB94E054CD63
:100C8000089563E68DEB94E04FCD08956ADB84EA26
:100C900090EFA6E7B3E480935B0590935C05A09387
:100CA0005D05B0935E0508958FEF81B912B893E4A6
:100CB00094B99CEB95B987B918B88AB91BB8ABDA67
:100CC0001092680510926A051092640510926905E9
:100CD000109267053BDB8AE090E0A0E0B0E08093F3
:100CE0004C0490934D04A0934E04B0934F04809312
:100CF0005F0590936005A0936105B093620500DAEB
:100D0000D0E010E0C0E000E002C05ADEC02FCF5FAC
:100D100080915A05882329F0143119F494DD08DEF6
:100D2000102F1F5F78DDD93111F42BDED02FDF5F5C
:100D3000809163058823E1F300936305CF3039F791
:100D4000E4CF9CD008F481E008950CD0D2C0CAD082
:100D500040F0C1D030F021F45F3F19F0B3C0511121
:100D6000FCC0B6C0D7D098F39923C9F35523B1F38B
:100D7000951B550BBB27AA2762177307840738F00A
:100D80009F5F5F4F220F331F441FAA1FA9F333D069
:100D90000E2E3AF0E0E830D091505040E695001C1D
:100DA000CAF729D0FE2F27D0660F771F881FBB1FD9
:100DB000261737074807AB07B0E809F0BB0B802DB3
:100DC000BF01FF2793585F4F2AF09E3F510568F0FF
:100DD00079C0C3C05F3FECF3983EDCF3869577950E
:100DE0006795B795F7959F5FC9F7880F911D969501
:100DF000879597F90895E1E0660F771F881FBB1F5D
:100E0000621773078407BA0720F0621B730B840B09
:100E1000BA0BEE1F88F7E095089504D06894B111DD
:100E20009CC008957FD088F09F5790F0B92F9927E4
:100E3000B751A0F0D1F0660F771F881F991F1AF0E5
:100E4000BA95C9F712C0B13081F086D0B1E00895EB
:100E500083C0672F782F8827B85F39F0B93FCCF36C
:100E6000869577956795B395D9F73EF490958095DB
:100E7000709561957F4F8F4F9F4F0895990F000890
:100E8000550FAA0BE0E8FEEF16161706E807F9075C
:100E9000C0F012161306E407F50798F0621B730BF7
:100EA000840B950B39F40A2661F0232B242B252B78
:100EB00021F408950A2609F4A140A6958FEF811D1B
:100EC000811D089597F99F6780E870E060E00895BC
:100ED0009FEF80EC089500240A9416161706180652
:100EE0000906089500240A9412161306140605062E
:100EF0000895092E0394000C11F4882352F0BB0FBF
:100F000040F4BF2B11F460FF04C06F5F7F4F8F4F21
:100F10009F4F089557FD9058440F551F59F05F3F5C
:100F200071F04795880F97FB991F61F09F3F79F00B
:100F300087950895121613061406551FF2CF46958D
:100F4000F1DF08C0161617061806991FF1CF86950F
:100F50007105610508940895E894BB2766277727F3
:100F6000CB0197F908958ADF08F48FEF08950BD02D
:100F7000C0CFB1DF28F0B6DF18F0952309F0A2CF7B
:100F8000A7CF1124EACFC6DFA0F3959FD1F3950F29
:100F900050E0551F629FF001729FBB27F00DB11DFD
:100FA000639FAA27F00DB11DAA1F649F6627B00D8D
:100FB000A11D661F829F2227B00DA11D621F739F76
:100FC000B00DA11D621F839FA00D611D221F749F84
:100FD0003327A00D611D231F849F600D211D822FCB
:100FE000762F6A2F11249F5750408AF0E1F0882312
:100FF0004AF0EE0FFF1FBB1F661F771F881F91501F
:101000005040A9F79E3F510570F05CCFA6CF5F3FDF
:10101000ECF3983EDCF3869577956795B795F79551
:10102000E7959F5FC1F7FE2B880F911D96958795D9
:1010300097F90895EE0FFF1F0590F491E02D0994A4
:10104000FB01DC010D900020E9F7119701900D9252
:101050000020E1F70895FB01DC0101900D920020D2
:10106000E1F708950F931F93CF93DF93CDB7DEB7CA
:101070002E970FB6F894DEBF0FBECDBF0D891E8927
:101080008F89988D26E02C831A83098397FF02C0ED
:1010900080E090E801979E838D83AE01455E5F4FAF
:1010A000698D7A8DCE01019619D04D815E8157FDF3
:1010B0000AC02F813885421753070CF49A01F801B2
:1010C000E20FF31F10822E960FB6F894DEBF0FBE0C
:1010D000CDBFDF91CF911F910F9108952F923F9235
:1010E0004F925F926F927F928F929F92AF92BF9238
:1010F000CF92DF92EF92FF920F931F93CF93DF93E4
:10110000CDB7DEB72C970FB6F894DEBF0FBECDBFBC
:101110007C016B018A01FC0117821682838181FFA9
:10112000B0C1CE0101964C01F7019381F60193FD08
:10113000859193FF81916F01882309F49EC18532C7
:1011400039F493FD859193FF81916F01853221F4EC
:10115000B70190E0C7D1E8CF512C312C20E02032EC
:10116000A0F48B3269F030F4803259F0833269F4A4
:1011700020612CC08D3239F0803339F4216026C0D3
:101180002260246023C0286021C027FD27C030EDE5
:10119000380F3A3078F426FF06C0FAE05F9E300D33
:1011A0001124532E13C08AE0389E300D1124332EA3
:1011B00020620CC08E3221F426FD5FC1206406C07F
:1011C0008C3611F4206802C0883641F4F60193FD94
:1011D000859193FF81916F018111C1CF982F9F7DE0
:1011E0009554933028F40C5F1F4FFFE3F9830DC033
:1011F000833631F0833771F0833509F057C021C051
:10120000F801808189830E5F1F4F44244394512C41
:10121000540114C03801F2E06F0E711CF801A08077
:10122000B18026FF03C0652D70E002C06FEF7FEF35
:10123000C5012C874CD12C0183012C852F77222EC0
:1012400016C03801F2E06F0E711CF801A080B18069
:1012500026FF03C0652D70E002C06FEF7FEFC50170
:101260002C872AD12C012C852068222E830123FC77
:1012700019C0832D90E048165906A0F4B70180E20A
:1012800090E030D13A94F5CFF50127FC859127FE07
:1012900081915F01B70190E025D131103A94F1E0DE
:1012A0004F1A51084114510479F7DEC0843611F009
:1012B000893631F5F80127FF07C06081718182818D
:1012C00093810C5F1F4F08C060817181882777FD73
:1012D0008095982F0E5F1F4F2F76B22E97FF09C073
:1012E00090958095709561957F4F8F4F9F4F2068A7
:1012F000B22E2AE030E0A40127D1A82EA81843C0BE
:10130000853729F42F7EB22E2AE030E025C0F22F57
:10131000F97FBF2E8F36C1F018F4883579F0ADC053
:10132000803719F0883721F0A8C02F2F2061B22E06
:10133000B4FE0DC08B2D8460B82E09C024FF0AC0F6
:101340009F2F9660B92E06C028E030E005C020E14E
:1013500030E002C020E132E0F801B7FE07C0608152
:101360007181828193810C5F1F4F06C06081718102
:1013700080E090E00E5F1F4FA401E6D0A82EA818D1
:10138000FB2DFF77BF2EB6FE0BC02B2D2E7FA51495
:1013900050F4B4FE0AC0B2FC08C02B2D2E7E05C04E
:1013A0007A2C2B2D03C07A2C01C0752C24FF0DC084
:1013B000FE01EA0DF11D8081803311F4297E09C000
:1013C00022FF06C07394739404C0822F867809F0BC
:1013D000739423FD12C020FF06C05A2C731418F416
:1013E000530C5718732C731460F4B70180E290E02B
:1013F0002C8778D073942C85F6CF731410F437189B
:1014000001C0312C24FF11C0B70180E390E02C878C
:1014100069D02C8522FF16C021FF03C088E590E02B
:1014200002C088E790E0B7010CC0822F867851F0A7
:1014300021FD02C080E201C08BE227FD8DE2B701F1
:1014400090E050D0A51430F4B70180E390E04AD08A
:101450005A94F8CFAA94F401EA0DF11D8081B701E6
:1014600090E040D0A110F6CF332009F45DCEB70153
:1014700080E290E037D03A94F7CFF70186819781E8
:1014800002C08FEF9FEF2C960FB6F894DEBF0FBE11
:10149000CDBFDF91CF911F910F91FF90EF90DF9023
:1014A000CF90BF90AF909F908F907F906F905F9004
:1014B0004F903F902F900895FC010590615070402F
:1014C0000110D8F7809590958E0F9F1F0895FC010D
:1014D0006150704001900110D8F7809590958E0F63
:1014E0009F1F08950F931F93CF93DF93182F092FFA
:1014F000EB018B8181FD03C08FEF9FEF20C082FF46
:1015000010C04E815F812C813D81421753077CF4CE
:10151000E881F9819F012F5F3F4F39832883108332
:1015200006C0E885F985812F0995892B29F72E8139
:101530003F812F5F3F4F3F832E83812F902FDF917D
:10154000CF911F910F910895FA01AA27283051F1E8
:10155000203181F1E8946F936E7F6E5F7F4F8F4FE4
:101560009F4FAF4FB1E03ED0B4E03CD0670F781F43
:10157000891F9A1FA11D680F791F8A1F911DA11D28
:101580006A0F711D811D911DA11D20D009F4689461
:101590003F912AE0269F11243019305D3193DEF609
:1015A000CF010895462F4770405D4193B3E00FD0BF
:1015B000C9F7F6CF462F4F70405D4A3318F0495DAA
:1015C00031FD4052419302D0A9F7EACFB4E0A6958D
:1015D0009795879577956795BA95C9F700976105AF
:1015E000710508959B01AC010A2E06945795479505
:1015F00037952795BA95C9F7620F731F841F951FFA
:08160000A01D0895F894FFCF2E
:10160800000000007BD4124300000000000000002E
:1016180000000000000000000000000000000000C2
:101628000000000000003943000000000000000036
:1016380000000000000000000000000000000000A2
:1016480000000000A4F07643000000000000000045
:101658000000000000000000000000000000000082
:10166800000000000A978A43000000000000000004
:101678000000000000000000000000000000000062
:1016880000000000B8FEB8430000000000000000A1
:101698000000000000000000000000000000000042
:1016A80000000000000039430000000000000000B6
:1016B8000000000000000000000000000000000022
:1016C80000000000A4F076430000000000000000C5
:1016D8000000000000000000000000000000000002
:1016E800000000000A978A43000000000000000084
:1016F8000000803F00000000000000000000000023
:1017080000000000000000007BD41243000000002D
:101718000000000000000000000039430000000045
:101728000000000000000000A4F076430000000064
:1017380000000000000000000A978A430000000033
:101748000000000000000000B8FEB84300000000E0
:101758000000000000000000000039430000000005
:101768000000000000000000A4F076430000000024
:1017780000000000000000000A978A4300000000F3
:101788000000000000000000A4D0A44300000000F6
:1017980000000000000000000000394300000000C5
:1017A8000000000000000000A4F0764300000000E4
:1017B80000000000000000000A978A4300000000B3
:1017C8000000000000000000B8FEB8430000000060
:1017D8000000000000000000000039430000000085
:1017E8000000000000000000A4F0764300000000A4
:1017F80000000000000000000A978A430000000073
:10180800000000000000803F000000007BD412436D
:1018180000000000000000000000000000000000C0
:10182800000000000A978A430000000000003943C6
:1018380000000000000000000000000000000000A0
:10184800000000007BD4124300000000A4F076439F
:101858000000000000000000000039430A978A4396
:101868000000000000000000A4F07643B8FEB84372
:1018780000000000000000000A978A430000394376
:101888000000000000000000B8FEB843A4F0764352
:101898000000000000000000000039430A978A4356
:1018A8000000000000000000A4F07643A4D0A44388
:1018B80000000000000000000A978A430000394336
:1018C8000000000000000000A4D0A443A4F0764368
:1018D8000000000000000000000039430A978A4316
:1018E8000000000000000000A4F07643B8FEB843F2
:1018F80000000000000000000A978A4300003943F6
:1019080000000000000000000000803F2020202090
:1019180020202020202020202020202020202020BF
:1019280020202020202020200000000000000000AF
:10193800000000000000000000000000000000009F
:10194800000000000000000000000000010000008E
:1019580025640053636F72653A00446966662E20F9
:101968004368616E676564005265642053656C6501
:101978006374656400477265656E2053656C6563C2
:1019880074656400426C75652053656C65637465A5
:101998006400496E707574204D656C6F64790053EE
:1019A80074617274202D205720427574746F6E0014
:1019B800446966666963756C74793A2000506C6195
:0C19C80079696E67204D7573696300003B
:00000001FF
